:020000040800F2
:100000000004002071030008710400087104000856
:1000100071040008710400087104000871040008EC
:10002000710400087104000871040008A1040008AC
:1000300071040008710400087104000871050008CB
:1000400071040008710400087104000871040008BC
:1000500071040008710400087104000871040008AC
:10006000710400087104000871040008011E0008F2
:10007000311E0008711E0008B11E0008F11E0008A4
:10008000211F0008611F00087104000871040008A6
:10009000710400087104000871040008710400086C
:1000A000710400087104000871040008710400085C
:1000B000710400087104000871040008710400084C
:1000C000710400087104000871040008710400083C
:1000D0007104000871040008412C00087104000834
:1000E000710400087104000871040008710400081C
:1000F000710400087104000871040008A11F0008C1
:1001000071040008812400087104000871040008CB
:1001100071040008710400087104000871040008EB
:10012000E11F00081120000851200008912000085C
:10013000D12000087104000871040008710400084F
:1001400071040008710400087104000871040008BB
:1001500001210008412100088121000871040008E4
:10016000710400087104000871040008710400089B
:10017000710400087104000871040008710400088B
:10018000710400087104000871040008710400087B
:10019000710400087104000871040008710400086B
:0C01A000710400087104000871040008DC
:1001B00008B501F095FA00F05BFA0D480D490E4CB8
:1001C00001F0CEFD04F0F4FB0C490D484FF40D6234
:1001D000402304F00DFC0B480B4901F0D9FC636986
:1001E00083F040036361642000F05AFEF7E700BF2C
:1001F000A010002018080020000402402811002050
:1002000010650008540E002020650008AFF3008040
:10021000844641EA000313F003036DD1403A41D311
:1002200051F8043B40F8043B51F8043B40F8043BD0
:1002300051F8043B40F8043B51F8043B40F8043BC0
:1002400051F8043B40F8043B51F8043B40F8043BB0
:1002500051F8043B40F8043B51F8043B40F8043BA0
:1002600051F8043B40F8043B51F8043B40F8043B90
:1002700051F8043B40F8043B51F8043B40F8043B80
:1002800051F8043B40F8043B51F8043B40F8043B70
:1002900051F8043B40F8043B51F8043B40F8043B60
:1002A000403ABDD2303211D351F8043B40F8043B00
:1002B00051F8043B40F8043B51F8043B40F8043B40
:1002C00051F8043B40F8043B103AEDD20C3205D310
:1002D00051F8043B40F8043B043AF9D2043208D008
:1002E000D2071CBF11F8013B00F8013B01D30B887A
:1002F00003806046704700BF082A13D38B078DD058
:1003000010F003038AD0C3F10403D21ADB071CBF29
:1003100011F8013B00F8013B80D331F8023B20F893
:10032000023B7BE7043AD9D3013A11F8013B00F8CC
:10033000013BF9D20B7803704B7843708B78837054
:100340006046704700000000000000000000000050
:10035000704700BFAFF30080AFF30080AFF30080C1
:10036000FEE700BFAFF30080AFF30080AFF3008083
:1003700072B6314880F30988022383F31488BFF3EF
:100380006F8F2E4B2E4A93420BD2D9430A4422F050
:10039000030204321A444FF0553143F8041B9342D0
:1003A000FBD1284B83420CD2274A191D521A22F046
:1003B000030204321A444FF0553143F8041B9342B0
:1003C000FBD102F03DFD214A214B9A420CD2D04391
:1003D000184420F003001F4B0430184453F8041B4A
:1003E00042F8041B8342F9D11B4B1C4A93420AD2A8
:1003F000D9430A4422F0030204321A44002143F88C
:10040000041B9342FBD1164D164CFFF7A1FFAC42E3
:1004100004D254F8043B9847AC42FAD3124D134C23
:10042000FFF7C6FEAC4204D254F8043B9847AC42F6
:10043000FAD3FFF795FF00BF00080020000000205E
:100440000004002000040020030800200008002011
:10045000280800200869000828080020343C0020F3
:10046000AC010008AC010008AC010008AC010008B8
:10047000FEE700BFAFF30080AFF30080AFF3008072
:1004800072B6FEE7AFF30080AFF30080AFF30080F9
:1004900000F076F900F03CFC00F08AF900DF00BFC4
:1004A000EFF30983203383F30988002383F3118852
:1004B000704700BFAFF30080AFF30080AFF3008060
:1004C00008B5094B094A002199600720DA6010211C
:1004D00000F0A6F80A20202100F0A2F80B208021CD
:1004E000BDE8084000F09CB800ED00E00003FA050C
:1004F000202383F31188184B5B6813F400631AD030
:10050000EFF309834FF0807243F8042CA3F120022B
:1005100082F3098811498A6992F8230070B108684A
:10052000916882688A4294BF002201227AB10C4A03
:1005300043F8082C704783F3118870470868916866
:1005400082688A4234BF00220122002AEFD1054A84
:1005500043F8082C704700BF00ED00E08C0D002030
:10056000910400089C040008AFF30080AFF3008002
:1005700008B500F075F9202383F3118800F038F9ED
:1005800000F0AEF800F04CF9002383F3118800F07E
:1005900087F9BDE80840FFF7ABBF00BFAFF30080AD
:1005A0002DE9F04FC1F80CD0D0F80CD0BDE8F08F99
:1005B00008B500F0FDF8002383F311882846A04712
:1005C00000F0AEFC08BD00BFAFF30080AFF30080C9
:1005D00020F0030202F1604202F5614270B4430967
:1005E00000F00304D2F80053E400FF269B00A6406D
:1005F00003F16043A14025EA060503F561430124A8
:1006000000F01F0004FA00F02943C2F8001370BC88
:10061000C3F8800118607047AFF30080AFF300802B
:1006200020F0030303F1604303F56D4300F0030082
:1006300010B4C0009A69FF24844022EA0402814079
:10064000114399615DF8044B704700BFAFF3008020
:10065000024B034A9B699A61FEE700BF8C0D0020A4
:1006600040550008AFF30080AFF30080AFF3008087
:1006700030B583B0FFF724FF00F002FA00F098F9DC
:1006800000F02EFF00F074FF00F05AF940210E48F0
:100690000E4D00F04DFB01240D4BC36180F820404E
:1006A000A86100F055F8002383F3118862B6AA69A7
:1006B00008499161084800932246084BF02100F058
:1006C000B7FB03B030BD00BF280800208C0D002010
:1006D00000040020C05600087808002051060008D9
:1006E000F8B500F0FDF8164B9B6993F8232012B182
:1006F000013A83F823205A6A124D01325A62EB689C
:100700002C680133AC42EB6018D0A768013FA760AA
:10071000A7B92368E668E7605D602B6000F080F8A9
:10072000002383F311882069B047202383F31188C5
:1007300000F05EF82C68A368002BEAD0F8BD00BF7B
:100740008C0D00207C0D0020AFF30080AFF3008003
:10075000054B1B6813B9054B1B6823B1044B054AB5
:100760001A60FFF78DBE704768090020740D0020E5
:10077000780D002060550008AFF30080AFF30080D3
:10078000074B1B6810B5074C0BB9236823B1064B08
:10079000064A1A60FFF774FE0123236010BD00BFF4
:1007A00068090020740D0020780D002068550008AD
:1007B000094B1B6810B5094C2BB92368002B02DDCF
:1007C0000023236010BD064B064A1A60FFF758FE4F
:1007D0000023236010BD00BF68090020740D0020B5
:1007E000780D002070550008AFF30080AFF3008053
:1007F000074B1B68002B10B5064C01DD236823B1A5
:10080000054B064A1A60FFF73BFE0123236010BD2B
:1008100068090020740D0020780D0020785500082C
:10082000094B1B68002B10B5084C05DD2368002B15
:1008300002DD0023236010BD054B064A1A60FFF756
:100840001FFE0023236010BD68090020740D0020E6
:10085000780D002080550008AFF30080AFF30080D2
:1008600010B5202383F31188094C2368002B02DB89
:10087000084A12682AB1084B084A1A60FFF700FEBE
:10088000236801332360002383F3118810BD00BF68
:1008900068090020740D0020780D0020885500089C
:1008A00010B5202383F31188094C2368002B02DD47
:1008B000084A12682AB1084B084A1A60FFF7E0FD9F
:1008C0002368013B2360002383F3118810BD00BF20
:1008D00068090020740D0020780D00209055000854
:1008E000064B1B68002B04DB054B1B68002B00DD4F
:1008F0007047044B044A1A60FFF7C2BD6809002024
:10090000740D0020780D002098550008AFF300808A
:10091000064B1B6823B9064B1B68002B00DD704794
:10092000044B054A1A60FFF7ABBD00BF6809002001
:10093000740D0020780D0020A0550008AFF3008052
:10094000034A1346402143F8081B5360704700BF19
:100950006C090020AFF30080AFF30080AFF300809C
:100960000C4A0D495368896910B40C4CE4681C604A
:100970005960816A996090F820101973103302F55C
:1009800081618B4228BF02F1080353605DF8044B7C
:10099000704700BF6C0900208C0D00207C0D0020EA
:1009A000014B1860FFF76CBD780D0020AFF300809D
:1009B000044B4FF0FF3100225B601B609960DA60EE
:1009C000704700BF7C0D0020AFF30080AFF30080C4
:1009D000F8B505460C4616461F46FFF781FFCDB118
:1009E000C6B1BCB10D492F610B68EE609A689442A4
:1009F00004D91B68A41A9A68A242FAD35A686A609A
:100A00008B422B605D601560AC6002D09968091B59
:100A10009960F8BD0248FFF7C3FFE3E77C0D0020B3
:100A2000B0550008AFF30080AFF30080AFF3008053
:100A300010B50446FFF754FF84B1E36893B123680F
:100A40000A4A934203D09968A2680A449A6062688D
:100A50001360216800234A60E36010BD0448FFF77B
:100A60009FFFEAE70348FFF79BFFE8E77C0D0020C4
:100A7000C0550008D0550008AFF30080AFF30080E8
:100A8000034B00225B601B605B611B619A607047D7
:100A90008C0D0020AFF30080AFF30080AFF3008037
:100AA00010B50446FFF71CFF94F820308BB10E2BD5
:100AB0000FD00022A168094B84F820201B689A6897
:100AC0008A42FBD25A686260236020465C601460F0
:100AD00010BD0348FFF764FFEBE700BF8C0D00205B
:100AE000F0550008AFF30080AFF30080AFF3008053
:100AF00010B52023044683F31188FFF779FE94F89C
:100B000020300D2B11D8DFE803F016101007100B62
:100B1000101010101010100BA26A9368013393602C
:100B200094E80C001A60226853604FF0FF33A36210
:100B30002046FFF7B5FFFFF773FE002383F311880C
:100B400010BD00BFAFF30080AFF30080AFF30080B3
:100B500070B5114C0646FFF7DBFE2368A5691A68DD
:100B600085F820601420012185F823005460284670
:100B700083F820102260A361FFF7F2FEEA69ADF16D
:100B800024039A4202D90548FFF70AFFA0692946C3
:100B9000BDE87040FFF704BD8C0D0020045600082E
:100BA00070B50C4686B00646FFF7B2FE631C12D045
:100BB0000D4D0E4AAB69214601A8FFF709FF3046EB
:100BC000FFF7C6FF049B13B101A8FFF731FFAB6924
:100BD000986A06B070BD044D3046FFF7B9FFAB69A7
:100BE000986A06B070BD00BF8C0D0020F10A0008A5
:100BF00070B5164D04460E46FFF78AFEA869A26836
:100C00008368A6629A4213D9FFF74AFF012306467A
:100C100084F82030AC61FFF7A3FEF269ADF1240344
:100C20009A420AD820463146BDE87040FFF7B8BC6A
:100C30002046BDE87040FFF733BF0548FFF7B0FE20
:100C400020463146BDE87040FFF7AABC8C0D00205D
:100C500004560008AFF30080AFF30080AFF30080CC
:100C600070B5104C2368A5691A682260142101260A
:100C70005460284683F8206085F82310A361FFF7AD
:100C80000FFF2846FFF76CFEEA69ADF124039A4294
:100C900002D90548FFF784FEA0692946BDE87040E7
:100CA000FFF77EBC8C0D002004560008AFF30080D7
:100CB00070B5154E3268B5691368AC6833600120B1
:100CC00000215E6082F820001346B26185F8201092
:100CD00000E01B689A68A242FBD85A686A602B60E1
:100CE00028465D601560FFF73BFEEA69ADF124031D
:100CF0009A4202D90548FFF753FEB0692946BDE87C
:100D00007040FFF74DBC00BF8C0D0020045600085A
:100D1000044B9B6993F823300BB1FFF7C9BFFFF772
:100D20009FBF00BF8C0D0020AFF30080AFF30080A9
:100D30002DE9F043134C416466694661002200F1DD
:100D400030054FF002094FF014084FF0010C00F18C
:100D50002C0E00F14C078160046180F820906061E6
:100D600080F8238080F822C080F821200264C263CA
:100D7000426282613061C0F82CE0C761456305635F
:100D8000BDE8F0838C0D0020AFF30080AFF300804E
:100D90002DE9F84F04460D4617469846FFF7A0FD8B
:100DA0000CB1CF2D38D81F48FFF7FAFD1E4EDFF8E3
:100DB0007CB07269A5F124016018E060002544F858
:100DC00001804FF0020A4FF014094FF0010C0A990C
:100DD0004160C0F820B004F1300304F12C0E04F19E
:100DE0004C0884F820A084F8215084F8239084F8DB
:100DF00022C0A76026616261676474612564E5634F
:100E00006562A56120461461C4F82CE06363236326
:100E1000C4F81C80BDE8F88F7F2FC4D8B8F1000F4C
:100E2000C4D1C0E7205600088C0D0020B105000891
:100E30002DE9F04F83B080460C9F894693469A4631
:100E400000F14C050446FF2604F8016BA542FBD1D6
:100E500008EB0904A54204D2552605F8016BA5420A
:100E6000FBD1202383F31188FFF78AFC53465A46AF
:100E7000494600974046FFF78BFF00210446FFF7E5
:100E8000B7FEFFF795FC002383F31188204603B0DB
:100E9000BDE8F08FAFF30080AFF30080AFF30080C8
:100EA00010B5044610B90948FFF77AFD202383F3F3
:100EB0001188FFF765FC21460620FFF771FEFFF75A
:100EC00077FC002383F3118810BD00BF6056000833
:100ED00038B5104B9C692546A06255F82C0FA842E6
:100EE00006D00368E362FFF7DBFDE06AA842F8D1B1
:100EF00094F821309B0704D1636922691A61226941
:100F000053610E20FFF724FE0348BDE83840FFF789
:100F100047BD00BF8C0D002070560008AFF3008065
:100F200010B52023044683F31188FFF729FC2046DF
:100F3000BDE81040FFF7CCBFAFF30080AFF30080F7
:100F400010B5044620B1002364602460A36010BD86
:100F50000148FFF725FDF6E7E0560008AFF30080F3
:100F60003B4B70B505469C69FFF7D2FC002D6BD05A
:100F7000A868002836D0A26883689A4207D990F8FA
:100F800020308260042B46D0052B30D0FBB12B469D
:100F900003E09968A268914202D31B689D42F8D190
:100FA0005A686260236004205C601460A562FFF7E9
:100FB000CFFDAB68A34202D02648FFF7F1FC236CBB
:100FC000AB4213D02448BDE87040FFF7E9BC90E87D
:100FD0000C00012180F820101A6002685360FFF7AE
:100FE0005FFDD4E7236CEB60AC60256470BD90E8D6
:100FF0000A001960866A01684B60334602E099680E
:10100000914202D31B689E42F9D15A684260036044
:1010100058601060BBE790E80A001960866A0168B2
:101020004B60334602E09968914202D31B689E42AE
:10103000F9D15A684260036058601060B068A268D5
:10104000836893429BD3A2E70448FFF7A9FC8FE78C
:101050008C0D00200057000814570008F0560008B7
:1010600010B52023044683F31188FFF789FB20463F
:10107000FFF776FFFFF79CFB002383F3118810BD79
:101080001E4A70B52023956983F31188FFF778FB1A
:101090002C6C002C2DD0A368AB4203D01848FFF76E
:1010A0007FFC2C6C2668E3682B64A6421ED0696C1A
:1010B0004BB11A689A4203D09268914238BF1146E8
:1010C000DB68002BF5D13368326CA96030462360B1
:1010D00000215C60A660E2603464FFF789FDFFF7E1
:1010E00067FB002383F31188204670BD0023A360B3
:1010F000F5E70448FFF754FC2C6CCCE78C0D00207E
:10110000505700083C570008AFF30080AFF3008051
:1011100038B504460D46FFF7E3FBC4B1E36B94F822
:10112000202045EA0301082AE1630CD0092A00D0F7
:1011300038BDA36A19408B42FAD12046FFF7B0FCB4
:101140000023836238BDA36A1942F6D138BD024834
:10115000FFF726FCE2E700BFBC570008AFF30080B2
:1011600070B505460E46FFF7BBFB65B12C68A5427E
:1011700008D0201D0BC83343E360FFF7C9FF246884
:10118000A542F6D170BD0248FFF70AFCEEE700BFAA
:10119000D0570008AFF30080AFF30080AFF30080BA
:1011A00071B1094B9B6910B498624468024683E8A8
:1011B00014000D20536023605DF8044BFFF7F0BC72
:1011C0004FF0FF30704700BF8C0D0020AFF3008060
:1011D00030B4029C046200250A44856002614060CC
:1011E000006041618161C160C36130BC704700BF74
:1011F00038B504460D46FFF773FBA36962699A424E
:10120000A3681BD00133511CA36061611570626932
:1012100023699A420BD22068A0420DD00368236054
:101220005C60FFF73DFC00238362184638BD2068F0
:10123000E3686361A042F1D1002038BD002BE1D00A
:101240006FF0030038BD00BFAFF30080AFF3008044
:10125000F8B504460F46202383F31188FFF790FA70
:10126000E36933B12046984703E0FFF799FF061E74
:1012700018DBA56820463946002DF6D0A269216901
:10128000531C8B4205F1FF35A361A56028BFE368BD
:10129000167828BFA361FFF78BFA002383F3118828
:1012A0003046F8BDFFF784FA2B4683F311883046A9
:1012B000F8BD00BFAFF30080AFF30080AFF3008054
:1012C0002DE9F047044689461E46D0F81C80924618
:1012D000002A37D0202383F31188FFF751FA002723
:1012E000B8F1000F05D02046C04702E0FFF758FFD5
:1012F00000BBA56820463146002DF7D0A369013D0B
:101300005A1CA261A5601B7809F8013B2369A269F8
:101310009A4224BFE368A361FFF74AFA002383F3EC
:1013200011880137BA450AD0202383F31188FFF7CB
:1013300027FAD5E7FFF73CFA2B4683F311883846A6
:10134000BDE8F0870148FFF72BFBC3E720580008F2
:1013500030B4029C04628D180561406000608260B8
:1013600041618161C160C36130BC7047AFF30080EF
:101370002DE9F041202304468846174683F311885F
:10138000FFF7FEF903E0FFF70BFF061E1DDBA56864
:1013900020463946002DF6D06369013D5A1C626132
:1013A000A56083F80080236962699A4224BFE368DC
:1013B0006361E3690BB120469847FFF7F9F9002311
:1013C00083F311881846BDE8F081FFF7F1F92B4649
:1013D00083F311883046BDE8F08100BFAFF3008091
:1013E00038B50446FFF77CFA6369A2699342A368A3
:1013F00016D02069511C0133A360A1618142157888
:101400000BD22068A04206D0036823605C60FFF71F
:1014100047FB00238362284638BDE368A361F0E7F9
:10142000002BE6D06FF0020038BD00BFAFF30080A4
:101430002DE9F84F04460E469B46D0F81CA01746EF
:10144000002A41D0202383F31188FFF799F94FF048
:101450000009A56806F101086A1E204635B36369D4
:10146000A2605A1C626132781A70236962699A42DA
:1014700024BFE3686361BAF1000F00D0D047FFF7E3
:1014800097F9002383F31188013F09F101094FF017
:10149000200316D083F31188FFF772F9A56846463A
:1014A0006A1E06F101082046002DD8D12046594673
:1014B000FFF776FE0028CCD0FFF77AF92B4683F3AE
:1014C00011884846BDE8F88F0148FFF769FAB9E787
:1014D00034580008AFF30080AFF30080AFF3008012
:1014E000054A064B0648074922F0070223F0070386
:1014F00002600B60704700BF3B3C002000C0012031
:10150000AC0D0020A80D0020AFF30080AFF30080E9
:1015100010B50446FFF7E4F90649074B08681A6856
:10152000E31D23F00703121A93429ABF1B180B60A6
:10153000002010BDAC0D0020A80D0020AFF30080EE
:1015400010B52023044683F31188FFF719F92046CC
:10155000FFF7DEFF0446FFF72BF9002383F3118822
:10156000204610BDAFF30080AFF30080AFF30080E2
:10157000044B054A1A6003F1100000229A60DA60F9
:10158000FFF7DEBCB00D002041150008AFF300806E
:10159000F8B51E4E002818BF0646073106F11000A8
:1015A00021F0070506F10804FFF75AFD03E05A6829
:1015B000954211D91C462368002BF8D1FFF760FD36
:1015C00033680BB305F108009847E8B10660456041
:1015D00000F108042046F8BD05F10801914208D940
:1015E0001A6822601C4644F8086BFFF749FD204644
:1015F000F8BD6FF00700401B5F1802441868585090
:101600007A6027605D60EDE70024E3E7B00D00201D
:10161000F8B50746002855D057F8086C06F11000B9
:10162000FFF71EFD08363446A7F10805AC4204D882
:101630006368083323449D420BD3B4420ED0AC42BE
:101640000CD32468AC42F8D86368083323449D4225
:10165000F3D21E48FFF7A4F9B442F0D123681BB1BE
:101660009D4201D31C46E1E757F8042C47F8083C9B
:10167000256002F1080357F8080CE918814209D0E7
:10168000626802F1080323449D4211D0BDE8F8408E
:10169000FFF7F6BC4968EB5847F8083C5318083385
:1016A00047F8043C626802F1080323449D42EDD1EF
:1016B00017E90A001344083321606360BDE8F8406D
:1016C000FFF7DEBC0248FFF76BF9A5E7705800088A
:1016D00060580008AFF30080AFF30080AFF30080E4
:1016E00008B500F0F5FD054801F0B2F900F010FB77
:1016F00000F036FABDE8084001F0AABB305C0008F3
:10170000914270B50D461446064615D38B1A1F2B11
:1017100012D805F01F03013301229A406D096309B5
:10172000AB4202F1FF3204F01F0409D356F8233014
:1017300002EA0300E04070BD0748FFF731F9E8E72F
:1017400056F8250056F823301040C4F12002E3403B
:101750009040184370BD00BF90580008AFF3008060
:10176000C3689B0F70B505460AD0012B06D14521F1
:101770003022FFF7C5FF0130800270BD002070BD30
:1017800049213E22FFF7BCFF312104462F22284683
:10179000FFF7B6FF5321064650222846FFF7B0FF59
:1017A00002360134B440093804FA00F070BD00BFBD
:1017B00038B50D46044660B159B12379052B01D0E7
:1017C000012038BDA36A6B604FF400732B600020CA
:1017D00038BD0248FFF7E4F8EFE700BFD058000833
:1017E0002DE9F041044682B0002800F0D88023792A
:1017F000022B04D0052B02D06B48FFF7D1F803234E
:101800002371204600F0ACFE00210A46204600F07D
:10181000DFFE01AB204608214FF4D57200F008FF2F
:1018200088B9019B0122C3F303239342226300F092
:10183000A680204600F0ACFE022323710125284635
:1018400002B0BDE8F081002121630A46204600F085
:10185000BFFE226B554B564902F00F02012A0CBF06
:1018600098468846642603E0013EE2D0FFF718FB65
:101870003721002201AB204600F0DAFE4D4D292130
:10188000424601AB0028D4D1019F3D402046002DA7
:10189000CFD100F0ADFE0028CBD1019B002B4FF043
:1018A0000A00E1DA5B0003D5236B43F010032363E6
:1018B00020460221002204F1080300F069FF0028FD
:1018C000B7D102460321204604F1380300F0B0FEF0
:1018D0000028AED104F11806334620460921A26B38
:1018E00000F056FF0028A4D1204600F049FE204613
:1018F0000721A26B01AB00F09BFE002899D1204686
:1019000010214FF4007201AB00F092FE0546002852
:101910008FD1019B274A1A40002A8AD1226B02F0FC
:101920000F02012A21D82046012100F039FE20466D
:101930003721A26B01AB00F07BFE00287FF479AF6A
:10194000019B1C4A1A40002A7FF473AF01AB20466A
:101950000621022200F06CFE00287FF46AAF019B92
:10196000144A1A40002A7FF464AF3046FFF7F8FEAD
:10197000A06200283FF45DAF052323715FE70246B4
:101980003721204601AB00F053FE00287FF451AF11
:10199000019A084B1340002B7FF44BAF59E70648E0
:1019A000FEF7FEFF23E700BFF0580008000010C05C
:1019B0000000108008E0FFFDE0580008AFF3008051
:1019C000F8B50E4617461D46044690B18AB183B15C
:1019D0002379052B02D00E48FEF7E2FF701EA36AA2
:1019E0002844984209D9636B43F080036363012064
:1019F000F8BD0848FEF7D4FFEAE706202B46207121
:101A000031463A46204600F0BBFF05232371F8BD5E
:101A10001059000804590008AFF30080AFF30080AC
:101A2000F8B50E4617461D46044690B18AB183B1FB
:101A30002379052B02D00E48FEF7B2FF701EA36A71
:101A40002844984209D9636B43F080036363012003
:101A5000F8BD0848FEF7A4FFEAE707202B462071EF
:101A600031463A46204600F0BBFF05232371F8BDFE
:101A70003059000820590008AFF30080AFF3008010
:101A800038B5044658B12579052D01D0012038BD5F
:101A900008232371204600F0D3FF257138BD02488A
:101AA000FEF77EFFEFE700BF40590008AFF300806C
:101AB00010B5044682B001AB20460D21A26B00F0A8
:101AC000B7FD0A4B78B9019A1340C2F343214BB9D1
:101AD000042908D04FF0010004D3072902D8FFF7EA
:101AE000DFF9E8E7012002B010BD00BF08E0FFFD0C
:101AF00038B5044648B3202383F31188FEF740FE2F
:101B00002379022B19D0052B05D01248FEF748FF88
:101B10002379022B11D004232371FEF749FE002301
:101B200083F311882046FFF7C3FF0546204600F0E7
:101B30002FFD02232371284638BDFEF739FE00230E
:101B400083F311881D46284638BD0348FEF728FF59
:101B5000D1E700BF605900084C590008AFF300807E
:101B600000F0AEBCAFF30080AFF30080AFF30080B5
:101B7000044B03600122002302714363C36283624A
:101B8000704700BFB0580008AFF30080AFF300808B
:101B900038B50D460446B8B1202383F31188FEF70B
:101BA000EFFD2379013B012B02D90948FEF7F8FE2E
:101BB0002046E56200F09CFC02232371FEF7F8FD4D
:101BC000002383F3118838BD0248FEF7E9FEE3E7FE
:101BD0008459000874590008AFF30080AFF3008007
:101BE00070B50D4682B016460446002841D02379D0
:101BF000052B02D02148FEF7D3FE236B0722DB061C
:101C000058BF6D022271204658BF7602FFF750FF81
:101C10002A4601AB2046202100F00AFD18B9019A9E
:101C2000174B13402BB1052323710125284602B021
:101C300070BD32462046212101AB00F0F9FC00289E
:101C4000F1D1019B0E4A1A40002AECD101AB20468B
:101C5000262100F0EDFC05460028E4D1019A084B4E
:101C60001340002BDFD12046FFF722FF052323710D
:101C7000DCE70448FEF794FEB9E700BFF859000816
:101C800008E0FFFDE8590008AFF30080AFF30080E3
:101C90000C30FFF715BB00BFAFF30080AFF300803F
:101CA0000C304FF0FF33FFF70BBB00BFAFF30080EA
:101CB0003030FFF7BDBB00BFAFF30080AFF3008053
:101CC00030304FF0FF33FFF7B3BB00BFAFF30080FE
:101CD0000C30FFF7BDBA00BFAFF30080AFF3008058
:101CE0000C304FF0FF31FFF7B3BA00BFAFF3008005
:101CF0003030FFF73DBB00BFAFF30080AFF3008093
:101D000030304FF0FF32FFF733BB00BFAFF300803E
:101D100001F036B8AFF30080AFF30080AFF300807E
:101D200070B50E4B044682B040F8043B0126009487
:101D30000B461546606004F1540104F10C00267254
:101D40001022FFF745FA00942B4604F1300004F10D
:101D500064011022FFF7FCFA02B070BD705A00084F
:101D600038B50D460446B8B1202383F31188FEF739
:101D700007FD237A013B012B02D90948FEF710FE2B
:101D80002946204601F00CF802232372FEF710FDCD
:101D9000002383F3118838BD0248FEF701FEE3E714
:101DA0001C5A0008105A0008AFF30080AFF30080FF
:101DB00038B504460D46FEF793FDD4B163693BB1D7
:101DC000294604F10C00FFF713FA00280BDB38BD9D
:101DD000201D0421FFF7C4F9294604F10C00FFF788
:101DE00007FA0028F3DA201D8021BDE83840FFF70C
:101DF000B7B90248FEF7D4FDE0E700BF485A000833
:101E000008B5FEF72DFD084B084A196801F03D01A1
:101E1000996013680BB150689847FEF741FDBDE823
:101E20000840FEF765BB00BF00600240D00D0020F7
:101E300010B5FEF715FD094B094819688268890934
:101E400001F03D018C019C600AB1C0689047FEF72B
:101E500027FDBDE81040FEF74BBB00BF006002400D
:101E6000D00D0020AFF30080AFF30080AFF300800F
:101E700010B5FEF7F5FC094B094819680269090C11
:101E800001F03D010C049C600AB140699047FEF7E7
:101E900007FDBDE81040FEF72BBB00BF006002400D
:101EA000D00D0020AFF30080AFF30080AFF30080CF
:101EB00010B5FEF7D5FC094B094819688269890DF0
:101EC00001F03D018C059C600AB1C0699047FEF7A6
:101ED000E7FCBDE81040FEF70BBB00BF006002400E
:101EE000D00D0020AFF30080AFF30080AFF300808F
:101EF00008B5FEF7B5FC084B08485968026A01F0BE
:101F00003D01D9600AB1406A9047FEF7C9FCBDE8BF
:101F10000840FEF7EDBA00BF00600240D00D00207F
:101F200010B5FEF79DFC094B09485968826A89097A
:101F300001F03D018C01DC600AB1C06A9047FEF7F8
:101F4000AFFCBDE81040FEF7D3BA00BF006002400E
:101F5000D00D0020AFF30080AFF30080AFF300801E
:101F600010B5FEF77DFC094B09485968026B090C56
:101F700001F03D010C04DC600AB1406B9047FEF7B4
:101F80008FFCBDE81040FEF7B3BA00BF006002400E
:101F9000D00D0020AFF30080AFF30080AFF30080DE
:101FA00010B5FEF75DFC094B09485968826B890D35
:101FB00001F03D018C05DC600AB1C06B9047FEF773
:101FC0006FFCBDE81040FEF793BA00BF006002400E
:101FD000D00D0020AFF30080AFF30080AFF300809E
:101FE00008B5FEF73DFC084B08481968026C01F083
:101FF0003D0199600AB1406C9047FEF751FCBDE885
:102000000840FEF775BA00BF00640240D00D002002
:1020100010B5FEF725FC094B09481968826C89093F
:1020200001F03D018C019C600AB1C06C9047FEF745
:1020300037FCBDE81040FEF75BBA00BF0064024009
:10204000D00D0020AFF30080AFF30080AFF300802D
:1020500010B5FEF705FC094B09481968026D090C1B
:1020600001F03D010C049C600AB1406D9047FEF701
:1020700017FCBDE81040FEF73BBA00BF0064024009
:10208000D00D0020AFF30080AFF30080AFF30080ED
:1020900010B5FEF7E5FB094B09481968826D890DFB
:1020A00001F03D018C059C600AB1C06D9047FEF7C0
:1020B000F7FBBDE81040FEF71BBA00BF006402400A
:1020C000D00D0020AFF30080AFF30080AFF30080AD
:1020D00008B5FEF7C5FB084B08485968026E01F0C9
:1020E0003D01D9600AB1406E9047FEF7D9FBBDE8CB
:1020F0000840FEF7FDB900BF00640240D00D00208B
:1021000010B5FEF7ADFB094B09485968826E890985
:1021100001F03D018C01DC600AB1C06E9047FEF712
:10212000BFFBBDE81040FEF7E3B900BF006402400A
:10213000D00D0020AFF30080AFF30080AFF300803C
:1021400010B5FEF78DFB094B09485968026F090C61
:1021500001F03D010C04DC600AB1406F9047FEF7CE
:102160009FFBBDE81040FEF7C3B900BF006402400A
:10217000D00D0020AFF30080AFF30080AFF30080FC
:1021800010B5FEF76DFB094B09485968826F890D40
:1021900001F03D018C05DC600AB1C06F9047FEF78D
:1021A0007FFBBDE81040FEF7A3B900BF006402400A
:1021B000D00D0020AFF30080AFF30080AFF30080BC
:1021C0000D4B30B400220D4D0D4C1A6011461346D4
:1021D000A858016044F833100133102B02F10C02AF
:1021E000F6D10849084A4FF0FF338B6030BCCB6012
:1021F0009360D360704700BF500E0020E05A000883
:10220000D00D00200060024000640240AFF3008067
:10221000F0B5064685B0002842D02648777A056892
:10222000012404FA07FE1EEA050F33D1224C4EEAC0
:10223000050504EBC70C15F0FF0F056044F83720C7
:10224000CCF8043004D01D48036B43F4001303633F
:1022500015F47F4F18D135682B6823F01F032B60CE
:102260002B6813F00104FBD1377A70683D23BB4023
:10227000212703602C606F617AB1B07A0901FEF703
:10228000A7F9204605B0F0BD0C48036B43F480036A
:102290000363E0E7204605B0F0BD104605B0F0BD91
:1022A0000748039302920191FEF77AFB01A90EC938
:1022B000B3E700BF500E0020D00D002000380240D0
:1022C000905A0008AFF30080AFF30080AFF30080B6
:1022D000204B21491A694FF0FF300022F0B51861F8
:1022E0001A615C6958615A611C6A1C4FDFF878E01A
:1022F0001B4E1C4D64F080541C621A620724D3F8F4
:1023000024C058625A62C1F804E08A600C60F9681F
:1023100041F08071F960316841F001013160196C60
:1023200041F080511964296841F480712960196F66
:1023300001F44071B1F5007F03D04FF4803119678B
:102340001A67084A536823F400735360BDE8F040ED
:10235000FFF736BF0038024010E000E0F0ED00E08B
:10236000001000E0007000403F900200AFF30080DA
:102370002C492D4B4FF080504FF4404208641A60B6
:102380000B6843F001030B600A68264B9007FBD5EE
:102390009A6822F003029A609A689A6019468B68DC
:1023A000204A13F00C03FAD1116801F0F901116011
:1023B0009360136843F4803313601168194B8903E9
:1023C000FBD55A6F42F001025A675A6F15499007C0
:1023D000FBD5164B4B600B68134A43F080730B60C0
:1023E00053685904FCD50F490A680E4B9201FBD57E
:1023F0000F4A1049996040F2057111609A6842F0E5
:1024000002029A601A469368064903F00C03082BEF
:10241000F9D14B6C43F480434B644B6E43F48043DF
:102420004B66704700380240007000400854400777
:10243000003C024000940838AFF30080AFF3008006
:1024400001F001038A0748BF43F002034A0748BF6F
:1024500043F008030A0748BF43F00403CA0648BF15
:1024600043F010038A0648BF43F020038A05026840
:1024700048BF43F04003134303607047AFF300804D
:1024800038B5FEF7EDF9202383F311880A4CFEF7E7
:10249000AFF9E06B094B0025DD6310B1FEF700FBDF
:1024A000E563FEF7BDF9002383F31188FEF7F8F921
:1024B000BDE83840FEF71CB8540E0020002C014047
:1024C00010B5054C2046FFF753FB0021034A044B8F
:1024D000E1636264A36410BD540E0020645B0008D5
:1024E000002C0140AFF30080AFF30080AFF3008019
:1024F0000379144A012B10B5026406D0124B002256
:102500001A605A60DA625A6210BD0022044613460D
:10251000406C0921FFF77CFE78B9636C0B491B689E
:102520000722996031205A619021FEF751F8084A3C
:10253000536C43F400635364E0E70648FEF730FA57
:10254000EBE700BF2054A308002C0140802C014081
:1025500000380240A05B0008AFF30080AFF30080BA
:10256000064B78225A601A6842F003021A605A68D1
:1025700042F480725A600A20FEF792BC002C01409F
:10258000024A536823F0FF0353607047002C014058
:10259000024B00225A601A60704700BF002C0140B5
:1025A000084A5368012923F4C05307D003D30229F2
:1025B00003D143F4805353607047704743F4006382
:1025C00053607047002C0140AFF30080AFF30080F0
:1025D000064B41F480619A601846D960436B034A08
:1025E0001B06FBD580239363704700BF002C01407E
:1025F00038B50C4C41F48861A2602546E160696BF6
:10260000084A11F04504FAD0946311F0040403D190
:1026100052691A60204638BD3430FFF711FF01209F
:1026200038BD00BF002C0140AFF30080AFF3008045
:1026300038B50C4C41F48861A2602546E160696BB5
:10264000084A11F04504FAD0946311F0050403D14F
:1026500052691A60204638BD3430FFF7F1FE012080
:1026600038BD00BF002C0140AFF30080AFF3008005
:102670002DE9F041202306460F46904683F311884A
:10268000FEF77EF8204BDB6B7BB1F36B13B11F4879
:10269000FEF786F91E4B9B69F3630220FEF758FA9A
:1026A000F36B13B11B48FEF77BF9174B5C6B14F40B
:1026B000807420D0736C1D682C6814F00104FBD169
:1026C0001D7A5868104A14493D23AB40036091635A
:1026D000D462FEF76DF8234683F31188012F07D9E2
:1026E0003046224643460C21BDE8F041FFF7A0BF2B
:1026F0002046BDE8F081FEF75BF8234683F311889E
:102700000120BDE8F08100BF002C0140B45B00084F
:102710008C0D0020DC5B0008FF07C000AFF30080D9
:102720002DE9F047466C377A7368356880463D245A
:102730001448BC40406B1C602C6824F01F04894680
:1027400017462C602C6814F00104FBD1317A0D4D32
:102750000D4A3D268E401E600146AA6308F13400F2
:10276000EC63EC62FFF76CFEB9F1010F07D940464C
:1027700022463B460C21BDE8F047FFF759BFBDE8B4
:10278000F08700BF002C0140FF07C000AFF30080BE
:1027900038B50F4C41F49861A2602546E160696B41
:1027A0000B4A11F04504FAD0946311F03F0409D1AB
:1027B000116A1960D1695960916999605269DA604A
:1027C000204638BD3430FFF73BFE012038BD00BF46
:1027D000002C0140AFF30080AFF30080AFF3008026
:1027E0002DE9F041B3F5004F82B01E4604460F4676
:1027F000904643D2264D274B6B622046FFF758F98F
:1028000010B102B0BDE8F081636C226C1B68DFF888
:1028100090C0C3F80C807102880858601A601A686A
:102820009B2042F0010240F22A3E1A60C5F838C0EF
:10283000C5F83CE0A962E862236BDB0658BF7F0263
:1028400001AD012E3A462B4620461BD91221FFF737
:10285000EFFE50B9019A104B134033B92046314670
:102860002A46FFF705FF0028CBD0204631462A46EE
:10287000FFF756FF012002B0BDE8F0810748FEF7E0
:102880008FF8B7E71121FFF7D3FE0028E2D0ECE77D
:10289000002C0140C0D4010008E0FFFD045C0008EA
:1028A000FF07C000AFF30080AFF30080AFF30080FC
:1028B0002DE9F041B3F5004F82B01D4604460F46A6
:1028C000904645D2274E284B73622046FFF7F0F81A
:1028D00010B102B0BDE8F081636C226C1B68DFF8B8
:1028E00094E0C3F80C806902880842F04002586006
:1028F0001A601A6840F21A3042F001021A60C6F8F3
:1029000038E0F063B162236BDB0658BF7F0201AE93
:10291000012D3A46334620461ED91921FFF788FE7D
:1029200068B9019A114B13404BB90E4B9922DA62E8
:10293000204629463246FFF79BFE0028C9D0204694
:1029400029463246FFF7ECFE012002B0BDE8F081D7
:102950000748FEF725F8B5E71821FFF769FE0028BC
:10296000DFD0ECE7002C0140808D5B0008E0FFFD2C
:10297000045C0008FF07C000AFF30080AFF30080E5
:102980002DE9F041940715461DD01E46C3B10746F8
:102990000C460E4406E02846FDF73AFCB44205F525
:1029A00000750DD021460A4A38460123FFF718FF6B
:1029B000013407494FF400720028ECD0BDE8F081E3
:1029C0000020BDE8F081BDE8F041FFF709BF00BF7E
:1029D000A00E0020AFF30080AFF30080AFF30080C3
:1029E0002DE9F041940715461DD01E46C3B1074698
:1029F0000C460E4401E0B44212D029464FF4007256
:102A00000B48FDF705FC21463846094A0123FFF72C
:102A10004FFF013405F500750028ECD0BDE8F081CA
:102A20000020BDE8F081BDE8F041FFF741BF00BFE5
:102A3000A00E0020AFF30080AFF30080AFF3008062
:102A400000207047AFF30080AFF30080AFF3008049
:102A50002DE9F04FDFF8B481DFF8B4C1D8F830A029
:102A6000DFF8B0E1634F644E644D654C6549664ADA
:102A7000DFF8A4B140F2FF194AEA090AC8F830A009
:102A8000D8F850A04AEA0909C8F850904368CCF831
:102A900004308368CCF80830C368CCF80C30036984
:102AA000CCF814304369CCF820308369CCF824305A
:102AB0000368CCF80030036ACEF80430436ACEF8DD
:102AC0000830836ACEF80C30C36ACEF81430036B3A
:102AD000CEF82030436BCEF82430C369CEF80030F6
:102AE000C36B7B60036CBB60436CFB60836C7B617E
:102AF000C36C3B62036D7B62836B3B60876D776069
:102B0000C76DB760076EF760476E7761876E376293
:102B1000C76E7762476D3760466F6E60866FAE60D6
:102B2000C66FEE60D0F880606E61D0F884602E626F
:102B3000D0F888606E62066F2E60D0F890506560A5
:102B4000D0F89450A560D0F89850E560D0F89C502B
:102B50006561D0F8A0502562D0F8A4506562D0F825
:102B60008C502560D0F8AC404C60D0F8B0408C6000
:102B7000D0F8B440CC60D0F8B8404C61D0F8BC403C
:102B80000C62D0F8C0404C62D0F8A8400C60D0F87D
:102B9000C8105160D0F8CC109160D0F8D010D1603E
:102BA000D0F8D4105161D0F8D8101162D0F8DC10F0
:102BB0005162D0F8C4101160D0F8E420CBF80420A2
:102BC000D0F8E820CBF80820D0F8EC20CBF80C2087
:102BD000D0F8F020CBF81420D0F8F420CBF8202047
:102BE000D0F8F820CBF82420D0F8E020CBF8002053
:102BF000BDE8F08F00080240000C024000100240C7
:102C00000014024000180240001C0240003802403C
:102C1000000002400004024000200240AFF30080A8
:102C2000034A93899BB243F080039381704700BFAE
:102C300000440040AFF30080AFF30080AFF30080AA
:102C4000F8B54B4EFDF70CFE756FAB892C88A4B21E
:102C5000E0059FB255D4202383F31188FDF7C8FD0A
:102C6000A10621D508E0A9884148C9B2FFF7A0F81C
:102C70002C88A4B2A00617D52207F4D014F0080FB0
:102C800014BF8021002114F0010F18BF41F0200172
:102C9000A30748BF41F040016407364848BF41F4EC
:102CA0008071FEF75DFADEE7FDF7BAFD002383F3DE
:102CB0001188390601D5220636D4630605D4FDF7FE
:102CC000EFFDBDE8F840FDF713BC202383F3118826
:102CD000FDF78EFD726CB36C25489A4236D027F012
:102CE00040039BB24FF6BF72AB812A80FDF798FD7F
:102CF000002383F31188FDF7D3FDBDE8F840FDF70D
:102D0000F7BB202383F31188FDF772FD301D4FF4CC
:102D10000071FEF725FAFDF783FD002383F3118888
:102D20004FF6FF632B8096E7202383F31188FDF78E
:102D30005FFD1148FEF754FB00280FDB80B2A8802E
:102D4000FDF76EFD002383F31188B6E7836B002B3C
:102D5000C5D004301021FEF703FAC0E7054808216A
:102D6000FEF7FEF927F0C00343F04003AB81E7E72D
:102D7000A0100020A4100020D0100020AFF300808D
:102D800010B5044C044A20460021FEF7C9FF034B4E
:102D9000636710BDA0100020212C000800440040F3
:102DA00038B5204C037A002918BF0C46012B054684
:102DB00023D06B6F1C4A93422CD002F58062934261
:102DC00028D02168194AB2FBF1F292B21A81A28886
:102DD000E088218942F4045240F0400042F02C0285
:102DE00041F0010192B280B289B200241882998226
:102DF0009A811C801A889B8838BD0D4B9842D8D187
:102E00000C4A136C43F4003313642620C021FDF7F1
:102E1000DFFBCEE72168084AB2FBF1F292B21A81D9
:102E2000D5E700BF205C00080010014080DE800272
:102E3000A01000200038024000BD0105AFF3008063
:102E4000FFF796BAAFF30080AFF30080AFF30080D6
:102E5000704700BFAFF30080AFF30080AFF3008096
:102E6000034B1869C0F3C00080F00100704700BF39
:102E700000100240AFF30080AFF30080AFF300809A
:102E800000207047AFF30080AFF30080AFF3008005
:102E900010B510B10224204610BD07480479053C46
:102EA00018BF0124FFF7ECFF0028F4D044F004041D
:102EB000E4B2204610BD00BF540E0020AFF30080E6
:102EC00010B510B10224204610BD07480479053C16
:102ED00018BF0124FFF7D4FF0028F4D044F0040405
:102EE000E4B2204610BD00BF540E0020AFF30080B6
:102EF00008B104207047084810B40C460179052930
:102F000003D003205DF8044B7047114622465DF85C
:102F1000044BFEF755BD00BF540E0020AFF30080F8
:102F200008B104207047084810B40C4601790529FF
:102F300003D003205DF8044B7047114622465DF82C
:102F4000044BFEF76DBD00BF540E0020AFF30080B0
:102F500008B10420704708B504291BD8DFE801F048
:102F60000315100B0500002008BD06CA0A48FEF72D
:102F700037FE002008BD4FF480731360002008BDA9
:102F80004FF400731380002008BD034B9B6A13604D
:102F9000002008BD042008BD540E0020AFF30080BF
:102FA0004FF40410704700BFAFF30080AFF3008010
:102FB00001460020FEF7ECBAAFF30080AFF30080CB
:102FC000FEF726BBAFF30080AFF30080AFF30080C5
:102FD0002DE9F041C66A8E4204D003790F460446BB
:102FE00073B917B90020BDE8F081607804F13001B1
:102FF0003A460123FFF77CFF20BBE762BDE8F08182
:1030000000F130084146407832460123FFF788FF3F
:10301000C0B9E369226A20711A449642E1D2E57888
:10302000012D01D8DDE7E36960781E44013D324699
:1030300041460123EDB2FFF773FF012DF3D1002FBD
:10304000D0D0D2E70120BDE8F08100BFAFF300800F
:1030500003692DE9F04101F10902002B47D04669CF
:1030600096F80CC00CF00807FFB2751E01F11104B0
:103070000DE0A3F1410E37B1BEF1190F03F1200E9F
:1030800001D85FFA8EF302F8013BA2420AD015F88C
:10309000013F202B57D0052BEBD1E52302F8013B54
:1030A000A242F4D1337A202B224618D02E230CF0E2
:1030B000100C02F8043B5FFA8CF50134F71D17F889
:1030C000013F202BA3F1410E43D025B1BEF1190FD2
:1030D0009CBF2033DBB204F8013B9442EFD1F37A7A
:1030E0000B72348BF3698C80F48ACC800B600024E3
:1030F00014708E6936B1CB6923B1036923B90024FA
:1031000000233355BDE8F081028C4FF6FF739A42DD
:10311000F5D0C76938880028F1D00D4606F1FF3890
:103120000BE0EB69013BA34204F10104E7D908F885
:10313000010F37F814000028E2D0002101F050FB05
:103140000028EED1DBE7337A1446202B2246ADD19E
:10315000C5E72246C3E700BFAFF30080AFF30080AE
:10316000F8B500210646FFF733FF024652B933781F
:10317000032B08D0002170780A46FFF7E9FE0030E3
:1031800018BF0120F8BD7379002BF3D006F1300190
:10319000F2620B4606F50C7503F8012BAB424FF0BB
:1031A0000004F9D13269F36809480A4DC6F81402DF
:1031B0004AF65527C6F81822C6F81C32A6F82E7211
:1031C0003563707872690123FFF7AAFE7471D1E745
:1031D0007272416152526141AFF30080AFF30080DF
:1031E00010B504460A46407804F130010123FFF788
:1031F0007FFE08B1032010BDB4F82E224AF65523F5
:103200009A4201D0022010BDD4F86630064A23F05D
:103210007F439342F7D0D4F8823023F07F43981A4B
:1032200018BF012010BD00BF46415400AFF300801D
:10323000F8B504682378303B092B02D865783A2D1D
:1032400014D07F4B1C680C6074B1237815469BB179
:103250006078FFF735FEC7070ED4DDB100F0040338
:1032600003F0FF00A3B9F8BD0C20F8BD02340460E0
:10327000002BE6D00B20F8BD002020706070FFF717
:1032800007FEC60701D50320F8BD2DB1410703D5C0
:103290000A20F8BD2846F8BD20460021FFF7A0FF10
:1032A000012805D00025032879D060B10D20F8BD94
:1032B00094F8F231002BF9D0D4F8F6512046294683
:1032C000FFF78EFFEFE7B4F83B30B3F5007FEDD1A9
:1032D000B4F8461001B9616D94F84070E1617B1E4D
:1032E000012BE770E2D894F83D30A370002BDDD0BD
:1032F0005A1E1A42DAD1B4F8416026813207D5D17C
:10330000B4F8432002B9226DE08F0028CED007FB2D
:1033100001F700EB161EBE447245C7D3CEEB020286
:10332000B2FBF3F3002BC1D040F6F572934267D99C
:103330004FF6F572934249D902330EEB0502284449
:10334000A361A2622062002EB0D19B0003F2FF13A2
:10335000E26D6262B1EB532FA8D3B4F86020E6604F
:103360004FF0FF332A44236166716261607804F193
:1033700030010123FFF7BCFD28B9B4F82E224AF62C
:1033800055239A420DD003232E4A23701388002020
:1033900001339BB220711380E380E062F8BD01200D
:1033A000F8BD294B226B9A42EDD103F1FF5303F58F
:1033B0000053D4F8142220339A42E4D1D4F81832BE
:1033C000D4F81C222361E2600323DDE702330EEB15
:1033D00005022844A361A2622062002E3FF466AF7A
:1033E0005B0003F2FF133844B1EB532F6062FFF42C
:1033F0005DAF00234FF0FF32E36022610223C3E799
:1034000002330EEB05022844A361A2622062002E63
:103410003FF44CAF03F0010202F2FF1203EB43034F
:1034200002EB53033844B1EB532F6062FFF43EAF1D
:1034300000234FF0FF32E36022610123A4E700BFC5
:103440001C1100201811002052526141AFF300807E
:1034500080B108B503780BB9092008BDC3888B4239
:10346000FAD14078FFF72CFD10F0010F14BF0320B4
:10347000002008BD09207047AFF30080AFF3008043
:10348000F8B50378022B05460C4639D0032B28D01B
:10349000012B02D04FF0FF30F8BD016A04EB540657
:1034A00001EB5621FFF794FD0028F3D1C6F3080382
:1034B000296A771C2B4401EB5721284693F830608A
:1034C000FFF786FD0028E5D1C7F308073D44E30771
:1034D00095F8300046EA00204CBF0009C0F30B000D
:1034E000F8BD016A01EBD411FFF772FD0028D1D1BC
:1034F000A40004F4FE743034285920F07040F8BD64
:10350000016A01EB1421FFF763FD0028C2D16400BA
:1035100004F4FF743034285BF8BD00BFAFF30080C3
:1035200070B50D468168C5800129044603D0006846
:103530008269914201D3022070BDB1B90378032B97
:1035400010D003890022AB42E260F4D9436A03EB56
:103550001513236105F00F0500EB45103030606155
:10356000002070BD416A0029EBD086783601B54253
:103570000FD215E0FFF784FFAD1B431C0146ADB22F
:103580001CD00128D7D9206882698A42D3D9AE429B
:1035900006D80129CFD982698A42EBD8022070BDB2
:1035A0008E1E023AE16096423BBF8278836A002118
:1035B00002FB063101EB15112161CBE7012070BD43
:1035C0002DE9F8430778022F04460D46164645D0EC
:1035D000032F2DD0012F06D04FF0020801232371B5
:1035E0004046BDE8F883016A05EB550901EB592116
:1035F000FFF7EEFC80460028F0D1C9F30803EA0784
:1036000023443DD593F83000216A00F00F00F2B258
:1036100040EA021209F1010983F8302001EB592137
:1036200027712046FFF7D4FC002843D08046D5E719
:10363000016A01EBD511FFF7CBFC80460028CDD104
:10364000AD0005F4FE7530354046635903F0704314
:103650001E43012366512371BDE8F883016A01EB23
:103660001521FFF7B5FC80460028B7D16D0005F4A1
:10367000FF7530350123665323714046BDE8F8835A
:10368000216A83F8306009F10109277101EB5921A2
:103690002046FFF79DFC0028C8D1C9F30809A144C2
:1036A000C6F3032699F8303023F00F031E4389F840
:1036B000306093E7C9F30809A144C6F30716F6E79B
:1036C000F8B505460F46E9B9C668836946BB0126C9
:1036D00034460FE0012E2CD9022B11D902242146A9
:1036E000FFF7CEFE38B3411C22D0012808D0A642F5
:1036F0001FD0AB6901349C422846EBD2012CEED896
:103700000120F8BD0129FBD983699942F8D2FFF75E
:10371000B7FE0128F4D9AB69834209D83E46D7E702
:103720009E4228BF0126D3E70128E9D14FF0FF30A0
:10373000F8BD0020F8BDAB69A342E1D92846214677
:103740006FF07042FFF73CFF0028EDD15FB1012F11
:10375000D6D9AB699F42D3D2394628462246FFF7D5
:103760002FFF0028E0D12B69EC605A1C05D0012204
:10377000013B6A712B612046F8BD2046F8BD00BFB1
:103780002DE9F047C4880134A4B214B90420BDE87F
:10379000F0870369002BF9D014F00F070E46054699
:1037A00008D00368EC8003EB471330336B610020D3
:1037B000BDE8F087C16801330361036861B19A789D
:1037C000013A12EA1412EDD1012902D99A69914203
:1037D00006D30220BDE8F0871A89A242D6D9E1E7D4
:1037E0001846FFF74DFE01288046F2D9B0F1FF3FA1
:1037F0001BD02B689A6982420CD9861E023A9642E7
:10380000C5F80C803BBF99789A6A002601FB062612
:103810002E61C7E7002EB9D01846E968FFF750FFC0
:10382000804628B90720BDE8F0870120BDE8F08771
:103830000128CED0B0F1FF3FF7D028680021FFF774
:10384000C7FB0028F1D12A68014602F1300302F5D6
:103850000C7203F8011B9342FBD12B689A69A8F103
:103860000206023A96423BBF9A78996A002202FB0E
:103870000612DA624FF000094FF0010A0CE083F8FB
:1038800004A02868FFF7A4FB09F101090028CCD1A6
:103890002B68DA6A0132DA629A785FFA89F082423A
:1038A0004FF00001EBD8D96A9A69091AD962A5E7E5
:1038B0002DE9F04FFF2585B04F4E80462F4608E09A
:1038C0000F2944D0FF2740460021FFF759FF002869
:1038D0003AD1D8F80000D8F81010FFF779FB98BB60
:1038E000D8F814402378002B74D0E27AE52B02F04C
:1038F0003F01E7D01207E3D40F2928D08FB919462A
:10390000274604F10A0E034601E017F8011FDA0109
:1039100042EA530351FA83F37745DBB2F5D19D4276
:1039200012D04FF6FF72D8F81830A8F82020DA7AB3
:10393000D207C7D404F10B0714F8011B13F8012BAD
:103940009142BFD1BC42F7D105B0BDE8F08FD8F8A5
:103950001C20002AB7D0580638D5B8F80610657B69
:10396000A8F8201003F0BF0794F80DB0AB45A9D11B
:103970002378224D23F04003013B03EB430A03EB82
:103980008A0A01204FF6FF7903E04B452DD1B5425D
:1039900024D015F8013BE35A0028F6D018460192CE
:1039A00000F046FF0AF10103BAF1FE0F0390029303
:1039B0001BD8019A32F81A0000F03AFFDDF80CC06B
:1039C000844512D1029B019A9A46E0E7BB427FF4FC
:1039D00079AFC9E7042005B0BDE8F08F2378590618
:1039E00006D528B132F81A3013B15D46FF276AE7D1
:1039F000013FFFB25D4666E70D5E0008005E00080D
:103A00002DE9F0410C4682B005460F464FF0010803
:103A1000AB699C4246D2012C0DD928462146FFF7BE
:103A20002FFD064600283DD0012804D0411C3FD080
:103A3000AB699C4203D3022002B0BDE8F081284666
:103A400021460022FFF7BCFD0028F5D12B695A1C46
:103A500003D001332B6185F80580631C9E4225D07D
:103A6000AA69AB786878023F023A974238BFA96AE0
:103A7000A4F1020434BF03FB07170027A24288BF4A
:103A8000AA6A00978CBF04FB03240024013B1C445A
:103A900004216A460194FFF75BFAAB6934469C4205
:103AA0003746B8D3002002B0BDE8F0813446AFE716
:103AB000012002B0BDE8F081AFF30080AFF30080D9
:103AC0002DE9F04F0B782F2B83B08846054600F088
:103AD00026815C2B00F023810024AC6098F8003034
:103AE0001F2B40F22581A44E01E018F8013F2F2B37
:103AF000FBD05C2BF9D098B21F28EF6940F2E5802B
:103B00002F282FD05C282DD00121A7F1020AC14611
:103B1000012400F065FE08B37F2809D822281DD0B3
:103B2000964A01E0984219D012F8013F002BF9D1D2
:103B30002AF8020F19F8010F1F2804F1010340F2BF
:103B4000C6802F2810D05C280ED0B3F5807F05D01A
:103B500001211C4600F044FE0028DDD1062003B000
:103B6000BDE8F08F0024012398444FF00009002C99
:103B7000F4D007EB440232F8023D202B01D02E2B6B
:103B800002D1013CF7D1E9E7AB69002227F8142004
:103B900003F10B0107EB440E202203F8012B8B42AB
:103BA000FBD1BB1E002200E0013233F8020F2028B7
:103BB000FAD02E28F8D092460AB149F0030973468C
:103BC00033F8022D2E2A01D0013CF9D100239B4667
:103BD00008220AF1010A78B320281FD02E281BD012
:103BE000934220D2544576D07F287ED82B2800F0EF
:103BF0008C80DFF88CE102E0884200F086801EF8BD
:103C0000011F0029F8D1A0F14101192900F2A68075
:103C10004BF0020BC0B27BE054455CD049F0030985
:103C200037F81A00D5E70B2A00F08A80544554D0A3
:103C3000A24549F0030950D9AB691978E52900F08C
:103C40008680082A04BF4FEA8B0B5FFA8BFB0BF0D0
:103C50000C020C2A60D00BF0030103295CD019F090
:103C6000020F0AD10BF0030BBBF1010F08BF49F0A3
:103C70001009042A08BF49F0080983F80B90284668
:103C80000021FFF74DFCA0B92846FFF711FEAB69F4
:103C9000DB7A80B959073FF562AF6B69DA7AD206F1
:103CA00066D59A8A5B8B43EA0243AB6098F8003092
:103CB0001DE7AB69DB7A04287FF451AF13F0040FE2
:103CC00008BF052003B0BDE8F08F0024012398440D
:103CD0004FF004094BE70B2A32D04FEA8B0B5FFA07
:103CE0008BFBA2460B2208239AE700210192009346
:103CF00000F076FD009B019A68B3304449F0020958
:103D000010F8800C00287FF471AF49F003095F20A0
:103D1000A969C854013383E749F002099FE708F114
:103D200001080024AC6098F800301F2B3FF6DBAE92
:103D300028462146FFF7F4FB6C6103B0BDE8F08F25
:103D4000AB691A78E52A49F0030980D10B220521D5
:103D50001970AB6975E749F00209D6E7A0F1610176
:103D6000192997BF2038C0B2C0B24BF0010BCFE782
:103D7000052003B0BDE8F08F305D0008B05D00089D
:103D8000BC5D0008AFF30080AFF30080AFF30080AC
:103D900070B40C6804604C68446083B001F108049E
:103DA000C51D0B3114F8016B05F8016F8C42F9D178
:103DB000052B0CD9148800E00C46D90341EA5303C3
:103DC00032F8021F14FA83F39BB20029F4D102AD3A
:103DD000072103F00F0404F13002392A88BF04F1EF
:103DE00037021B0901F1FF3105F8012DF1D102AABB
:103DF0000A447E2402F8084C0A46E9B10478202CD3
:103E000008D0044603E014F8015F202D02D00133EE
:103E10008B42F8D1184402A91144072A03F1010387
:103E200096BF11F8081C20210132072B00F8011B56
:103E3000F1D903B070BC70471A46EBE7AFF30080CE
:103E40002DE9F0478769C66984B004463A1F01AB83
:103E500052F8041F43F8041B04A98B42F8D19DF8C3
:103E60000F30DA0724D50023FB720125E36108E057
:103E70002046FFF71DFD0135ADB270B9642D00F08D
:103E8000E980384601A932462B46FFF781FF2046DC
:103E90000021FFF745FB0028EAD0042802D004B037
:103EA000BDE8F0879DF80F30FB729DF80F30E6619A
:103EB0009B0700F1B780012620460021FFF730FB69
:103EC0000028ECD18046054606E01D46FFF758FC69
:103ED0000346002840F0BA8021692068FFF778F88F
:103EE000012103466F18002840F0B0806269127803
:103EF000E52A204601D0002AE7D10DB9B4F80680A2
:103F0000BDB2B542E2D1012E63D041462046FFF753
:103F100007FB0346002840F09980A269074602F19A
:103F20000B0012F8011BFB0143EA570751FA87F710
:103F30008242FFB2F5D1731EDFF824819DB20F26B5
:103F400020682169FFF744F8034600287ED15FFA14
:103F500085FA6169D4F81C903F4B4F730AF1FF3228
:103F600002EB420E02EB8E02CE72087348834FF6CC
:103F7000FF7C0CE039F8120093F800E0013221F8E0
:103F80000E0008B94FF6FF700133434508D0604575
:103F9000F0D193F800E00133434521F80E00F6D14B
:103FA0004FF6FF73984202D039F812300BB94AF03D
:103FB000400A81F800A0236801221A7120460021DE
:103FC000FFF7DEFB0346002840D1013DADB2002DD6
:103FD000B6D120682169FEF7FBFF00287FF45FAFB0
:103FE0006569034605F120012A4602F8013B8A4231
:103FF000FBD1A06903682B6043686B60EA1D00F188
:1040000008030B3013F8011B02F8011F8342F9D19A
:10401000A369DB7A03F018032B73236801221A715A
:1040200000203CE73388002B3FF445AF00230133E9
:104030009BB236F81320002AF9D1084A193382FBC3
:104040000312DB17C3EBA2039EB235E7184604B098
:10405000BDE8F087072022E7005E00084FECC44E61
:104060000D5E0008AFF30080AFF30080AFF3008077
:1040700008B10B207047054B1A6802B1107009B1E6
:1040800000220A7019600020704700BF1C11002038
:104090002DE9F0478EB00EAB164643F8341D0022D2
:1040A000026005A906F01E0205461846FFF7C0F893
:1040B00004464FF40070FEF77BFF074678B102AB71
:1040C0000C900B9306F01F096CB116F01C0F42D137
:1040D0003846FEF775FF20460EB0BDE8F087112088
:1040E0000EB0BDE8F08705A80199FFF7E9FCDDF8FF
:1040F000288004460028E8D1B8F1000F4DD016F012
:104100001C0F35D098F80B3013F0110F41D1700708
:1041100065D419F0080F42D1059BDB6AEB61384684
:10412000C5F82080FEF74CFF85F80690B8F814100B
:10413000B8F81A30059A43EA01432B61D8F81C10ED
:10414000D388AB8000242046E9602A60AC60AC6173
:104150000EB0BDE8F087042CBAD105A8FFF770FEB9
:1041600049F008090446DDF828800028D1D0AFE7DF
:1041700098F80B30D9060ED4B20708D406F008061A
:10418000F6B2059B002EC8D049F02009C5E7DB0731
:10419000F4D507249CE704249AE7062498E7FEF761
:1041A000FFFEB8F81460B8F81A20059BC8F80E0096
:1041B0000021012052EA064688F80B10C8F81C10AE
:1041C000A8F81A10A8F814101871DDD08642D3F898
:1041D0002CA002D09A69964203D3022478E70824DF
:1041E00076E718463146FFF70BFC044600287FF4BB
:1041F0006FAF0598721E5146C260FEF7E9FE044695
:1042000000287FF465AF059BBEE700BFAFF30080D9
:104210002DE9F84F06469A4600238846CAF8003032
:104220000068B1881446FFF713F938B9B3791D0651
:1042300006D4D80707D40720BDE8F88FBDE8F88F6B
:104240000220BDE8F88FB168F7687F1AA74228BF3F
:10425000274606F12409002F4DD0C1F30802002A99
:104260006AD1306890F802B00BF1FF3B0BEA512B9A
:104270001BF0FF0B00F0888073698269023B023AF1
:10428000934280F090808278856A02FB0353002B72
:1042900000F089807C0A03EB0B052FD00BEB0403A5
:1042A000934288BFCBEB0204E3B2407841462A46F2
:1042B000FEF71EFEB37900287DD15A060FD5B369EB
:1042C0005B1B9C420BD908EB432303F5007006F1FE
:1042D000200252F8041F43F8041B8342F9D1B1684D
:1042E0006202DAF8003011441344BF1AB1609044FE
:1042F000CAF80030B1D10020BDE8F88FB269AA42F7
:1043000016D0B3795B060BD5012340784946FEF7FA
:1043100007FEB37900284ED123F040033068B37113
:10432000407849462A460123FEF7E2FD002841D1A4
:10433000B168B561C1F3080202F12003C2F5007251
:10434000BA4228BF3A463344032A03F1040438D959
:1043500015464046043D53F804EF40F804EB032DA6
:10436000F8D8151F25F00305043512F003032C447B
:104370004544B6D0013DE11814F8013B05F8013F72
:104380008C42F9D1B168ACE739B93369012B0AD94C
:10439000591C0FD0306873616FE77169012902D928
:1043A0008369994210D3B37963F07F03B37102201C
:1043B000BDE8F88FB37963F07F03B3710120BDE8E6
:1043C000F88F45461346D5E7FFF75AF80346DDE771
:1043D0002DE9F04F05469A46002383B08846CAF877
:1043E00000300068A9881746FFF732F828B9AB7982
:1043F000180605D4990707D4072003B0BDE8F08F4D
:10440000022003B0BDE8F08FE968AA68CF4207D365
:10441000914243F0200338BFEA60AB710020ECE723
:10442000002FF5D005F12403019305F50976C2F3B9
:104430000803002B6AD1296891F802C00CF1FF3CF7
:104440000CEA522C1CF0FF090ED1002A40F09F808C
:104450002869002800F0A980012800F0B980421CDA
:1044600000F08F8029686861AB795B067CD46B694A
:104470008A69A3F1020B023A934580F0A9808A78F9
:104480008B6A0BFB0233002B00F0A2807C0A09EB45
:10449000030B30D009EB0403934288BFC9EB02043D
:1044A00048785A464146E3B2FEF73AFD002868D103
:1044B000AB69CBEB030B5C450ED908EB4B2B019B97
:1044C000ABF1040252F8041F43F8041BB342F9D1C4
:1044D000AB7923F04003AB71AA686102DAF80030CF
:1044E0000A440B447F1AAA608844CAF800309ED15F
:1044F000E968AB798CE7AB69AA685B4502D0EB68E9
:104500009A425BD3C5F818B0C2F30803C3F5007430
:10451000BC42214628BF39462B44032903F124001D
:1045200040D9A8F1040E0B460446043B5EF804CFC4
:1045300044F804CB032BF8D80C1F24F003040434F4
:1045400011F0030E2044444409D0431E04EB0E0036
:1045500014F8012B03F8012F8442F9D1AA68AB7932
:1045600043F04003AB71B9E74878AA690199012388
:10457000FEF7D6FCAB7928B923F040032968AB716C
:1045800075E7AB7963F07F03AB71012035E708462F
:104590006969FFF795F800287FF45EAFAA68E968BB
:1045A000AB7935E744468E46CFE708464946FFF7E4
:1045B00087F8286100287FF44FAFEFE7487801992A
:1045C0005A460123FEF794FC0028DAD1AA6899E73D
:1045D000AB7963F07F03AB7102200EE7AFF300808D
:1045E00038B504460068A188FEF732FFC8B9A17942
:1045F00001F0200202F0FF03A2B14B060CD52146C8
:10460000A26951F8240B01234078FEF789FC30BBE6
:10461000A37923F04003A3712068E169FEF7D8FC79
:1046200010B138BD184638BD256AEB7A43F0200337
:10463000EB72E368EB6123696B831B0CAB82FEF7C3
:10464000AFFCC5F81600A379226823F020030121EE
:10465000A37111712068BDE83840FEF781BD0120CB
:10466000DFE700BFAFF30080AFF30080AFF300805F
:1046700010B50446FFF7B4FF00B9206010BD00BFBD
:1046800070B58EB00EAB0D4643F8340D05A9184633
:104690000022FEF7CDFD08B10EB070BD4FF40070E2
:1046A000FEF786FC0646A0B102AB05A801990C9660
:1046B0000B93FFF705FA044628B90A9B63B105A8D6
:1046C0002946FEF7C5FC3046FEF77AFC20460EB0C0
:1046D00070BD11200EB070BD0624F4E7AFF300806A
:1046E0002DE9F04F83B002AB174643F8040D89461D
:1046F000184611460022FEF79BFD804638BB3868FD
:1047000084690269A11E8A42034624D990F800B048
:10471000BBF1010F3AD0026A45464346C24603B395
:10472000BBF1020F2BD02E6826F070460EB90AF1AD
:10473000010A0435043B013CF1D1BBF1030F08BF72
:104740000123C0F810A008BF4371C9F800A040467B
:1047500003B0BDE8F08F4046C9F8002003B0BDE8C3
:10476000F08F1146551CFEF733FC60BB3868BBF177
:10477000020F2A464FF4007300F13005D3D1298887
:1047800009B90AF1010A0235023BD4E70225C24603
:10479000AC422946184605F101050FD9FEF770FE17
:1047A000431C13D0012815D008B90AF1010A3B684F
:1047B0009C69A542184603D2012DE9D84FF00208A2
:1047C000C0F810A0C1E780463868B6E738684FF0F7
:1047D0000108F5E738684FF00208F1E7AFF3008011
:1047E0007F2811D989B910B40D4B01E0802915D06B
:1047F00033F8022F82428CB201F10101F6D104F1AB
:10480000800080B25DF8044B7047FF2804D8054B48
:10481000803833F810007047002070470020F1E71F
:104820000E5E0008105E0008AFF30080AFF300805A
:1048300061280AD00749002201E0834206D031F8FE
:10484000023F0132002BF8D170470022024B33F8AF
:1048500012007047105F0008F0600008AFF300809E
:104860000EB400B582B003AA52F8041B019200F006
:1048700017FA02B05DF804EB03B07047AFF30080A5
:10488000002903DD0449054AFFF7EABF044B054947
:10489000DA68FFF7E5BF00BFD0620008DC620008FD
:1048A0007C0D0020E4620008AFF30080AFF30080CD
:1048B000002903DD19491A4AFFF7D2BF10B519497B
:1048C000194A82B00446FFF7CBFF20461749184A21
:1048D000FFF7C6FF20461749174AFFF7C1FF2046DA
:1048E0001649174AFFF7BCFF20461649164AFFF73C
:1048F000B7FF20461549164AFFF7B2FF2046154973
:10490000154AFFF7ADFF154B009320461449154A91
:10491000154BFFF7A5FF02B010BD00BFD062000825
:10492000EC620008F46200080863000810630008E5
:1049300024630008446300085863000864630008A7
:10494000786300088463000898630008B063000877
:10495000C4630008F86300080C6400085064000891
:1049600028640008406400084C640008AFF300802D
:1049700038B50D46044690B1286020460B4900F03A
:10498000BFFD04442046094900F092FD60B1421C7D
:1049900000232A600370237823B1204638BD0C68B9
:1049A000002CEAD1002038BD2860F4E75C640008E0
:1049B000014B1B60704700BF20110020AFF3008047
:1049C00010B52023044683F31188FBF7D9FE044871
:1049D0000021FCF7C5FB2046BDE81040FCF778BA83
:1049E00020110020AFF30080AFF30080AFF3008010
:1049F00000B583B00090084611461A46024BFCF7FA
:104A000017FA03B05DF804FBB14A0008AFF3008069
:104A1000F0B5013A83B00E468F1804460D46236860
:104A200020465B680DF107010122984748B39DF8C5
:104A30000710042928D0082910D07F290ED00D296D
:104A400029D01F29EBD9BD42E9D2236820469B68B3
:104A500098479DF807302B700135E0E7B5422046B6
:104A6000DDD023689B689847236820469B682021F7
:104A7000984723689DF807109B682046013D98479A
:104A8000CDE7012003B0F0BD20460749FFF7E8FE5F
:104A9000012003B0F0BD20460449FFF7E1FE0020ED
:104AA000287003B0F0BD00BF6064000860650008B6
:104AB0002DE9F041564B06689B69564AD0F80480B0
:104AC00055499A6196B03046FFF7CAFE30465349C1
:104AD000FFF7C6FE304606A94022FFF799FF0446BD
:104AE00078BB694606A8FFF743FF694607460020E2
:104AF00001ADFFF73DFF50B1042C1BD045F8040B6E
:104B0000694600200134FFF733FF0028F4D116ABCB
:104B100003EB840343F8540C002FD7D038464049A8
:104B200000F09EFCC0B984B130463E493C4AFFF7D4
:104B300097FECBE730463C49FFF792FE00230593F2
:104B4000C4E730463949FFF78BFE0020FFF738FFF6
:104B5000002016B0BDE8F0813846354900F080FCF1
:104B600030B93046B4B12F49314AFFF779FEADE78D
:104B7000304D286818B930E055F8080F68B3394649
:104B800000F06EFC0028F7D16B682146304601AA80
:104B900098479BE7274D2849FFF762FE2A682C4675
:104BA0003AB130462549FFF75BFE54F8082F002A3A
:104BB000F7D1B8F1000F0BD0D8F8002042B144462D
:104BC00030461E49FFF74CFE54F8082F002AF7D153
:104BD00030461B49FFF744FE78E7B8F1000F0DD0CF
:104BE000D8F8000050B1454602E055F8080F28B14A
:104BF000394600F035FC0028F7D1C5E730463A4683
:104C00001049FFF72DFE30460F49FFF729FE5DE7FB
:104C10008C0D0020646400086C6400088464000843
:104C2000B0640008D0620008986400088C64000832
:104C3000B864000800080020C0640008D8640008B8
:104C400060650008DC640008E0640008AFF30080E1
:104C5000F0B400F10B073C460D46B1FBF2F602FB47
:104C6000161101F13003392BC8BF01F13703DBB254
:104C700004F8013DB5FBF2F53146002DEDD13A1BAC
:104C8000024401E014F8013F00F8013B9042F9D1E1
:104C9000F0BC7047AFF30080AFF30080AFF300804B
:104CA0002DE9F04F87B00DF10C090DF10D03C9EBA3
:104CB000030383460C46164601932178651C59B1BF
:104CC00025290CD0DBF800202C46926858469047E6
:104CD0002178651C0029F3D107B0BDE8F08F617819
:104CE0002D2903BFA178A51C4FF0010A4FF0000A3F
:104CF0002E2900F0FD80302900F0FA804FF02008C6
:104D0000681C002505E032780436217802EB47055F
:104D10000130A1F13002D2B2092A044605EB850721
:104D2000F3D92A29EFD02E294FF0000029D001F025
:104D3000DF024C2A34D0A1F14402342A00F2D1809F
:104D4000DFE802F0BCCFCFCFCFBCCFCFCFCFCFB13A
:104D5000CFCFCFCFCFCACFCFCCCFCFCFCFCFCFCF6B
:104D6000CFCFCF82BCCFCFCFCFBCCFCFCFCFCFB1E4
:104D7000CFCFCF55CFCACFCFCC003278043602EB9D
:104D8000470014F8011BA1F13002D2B2092A00EB4E
:104D90008007F4D92A29F0D001F0DF024C2ACAD1C9
:104DA0002278002A00F09D80A2F1440101343429C8
:104DB00000F29680DFE801F08294949494829494B7
:104DC00094949477949494949490949492949494C6
:104DD0009494949494949448829494949482949403
:104DE000949494779494941B94909494920037683C
:104DF000544A002F08BF174604363A7800287CD062
:104E0000002A7ED001383A4601E0013803D412F876
:104E1000011F0029F9D1D01B2D1A421E4FF0200886
:104E200025EAE575BAF1000F1ED0B2F1000A2DDABD
:104E3000002D3FF442AFDBF800205846926841460F
:104E40009047013DF7D138E7019B32688DF80C207F
:104E5000043618465A1E4FF020084F462D1A25EAF0
:104E6000E575BAF1000FE0D192466D4255B139783F
:104E70002D2950D0DBF8001058468B6841469847E2
:104E80000135F7D1BAF1000FFFF617AFDBF80000DC
:104E900017F8011B83680AF1FF3A58469847BAF1A0
:104EA000FF3FF3D1C4E7082231684846FFF7D0FE40
:104EB000C9EB00000436421E4F46CFE73168002997
:104EC00006F1040633DB48460A22FFF7C1FEC9EBB0
:104ED0000000421E4F46C1E70A22E5E71022E3E741
:104EE0001146019B8DF80C1018465A1E4F46B5E727
:104EF00069784FF03008013502E747F6FE70002A66
:104F000081D125EAE575BAF1000F17D14FF0FF3ACC
:104F10004FF02008A9E7B8F1300FABD1DBF8000063
:104F200083685846984701370AF1FF3AA2E72D22D5
:104F300049428DF80C200DF10D00C5E74FF0200817
:104F400076E700BFF0640008AFF30080AFF30080A5
:104F50000EB400B582B003AA52F8041B0192FFF709
:104F60009FFE02B05DF804EB03B07047AFF3008022
:104F70002DE9F0436449654CADF5237D8046FFF78C
:104F8000E7FF40466249FFF7E3FFE069A169626A13
:104F9000236A8DE8030040465E49FFF7D9FF5E496A
:104FA0004046FFF7D5FF6420FBF77AFF204600213B
:104FB0005A4A0123FCF704FD002840F0C2815849F9
:104FC0004046FFF7C5FF6420FBF76AFF554940469E
:104FD000FFF7BEFF6420FBF763FF4C48524A0021F5
:104FE0000123FCF7EDFC002840F0A88147484F4A18
:104FF00000210123FCF7E4FC002840F09C81434899
:105000004B4A00210123FCF7DBFC002840F0908193
:105010004349484D4046FFF79BFF6420FBF740FFA4
:1050200040464549FFF794FF6420FBF739FF05F53B
:1050300080592B46552203F8012F4B45FBD13F4C9D
:10504000552204F58057234603F8012FBB42FBD1BC
:105050002E48324A00210823FCF7B2FC002840F019
:1050600064814FF47A7608E02C4835494FF4805239
:1050700000F0BEF960B9013E0ED02448304A00214C
:105080000823FCF79DFC0028EED0FBF7F9F9EBE7CD
:10509000FBF7F6F9013EF0D121494046FFF758FFF2
:1050A0006420FBF7FDFE40462649FFF751FF6420D0
:1050B000FBF7F6FE552305F8013FA945FBD1552323
:1050C00004F8013FBC42FBD11048174A00210823D5
:1050D000FCF776FC002840F025814FF47A7408E054
:1050E0000E4817494FF4805200F082F970BB013C22
:1050F00030D00648144A00210823FCF761FC002840
:10510000EED0FBF7BDF9EBE730650008540E002048
:10511000386500085465000864650008281C0020F4
:105120007C65000884650008291C00202A1C0020DA
:105130002B1C0020271C0020A06500082F2C00201D
:10514000302C0020BC650008312C0020FBF798F9BA
:10515000013CCED17F49804E4046FFF7F9FE6420E6
:10516000FBF79EFE0FCE07AD0FC533687B492B6062
:105170004046FFF7EDFE6420FBF792FE204678499B
:10518000FEF776FF002800F0B780FBF779F9754944
:105190004046FFF7DDFE6420FBF782FE03A972485C
:1051A00004AAFFF79DFA002840F0B98040466F49F5
:1051B000FFF7CEFE6A4B039A9B786D49500203FBC2
:1051C00000F000904046FFF7C3FE6A494046FFF7F3
:1051D000BFFE6420FBF764FE19A867491222FEF7A0
:1051E00057FF002840F0988040466049FFF7B0FE26
:1051F00062494046FFF7ACFE6420FBF751FE1422E3
:1052000019A807A90DEB0203FFF7E2F800286ED0FA
:10521000FBF736F940465A49FFF79AFE19A8FFF7FF
:1052200027FA00285ED0FBF72BF940465549FFF7D7
:105230008FFE11A95048FFF723FA04466420FBF7BC
:105240002FFE14B9119B142B7ED0FBF719F94046A1
:105250004D49FFF77DFE19A847490122FEF718FFC7
:1052600004466420FBF71CFE002C52D119A80CA99F
:10527000142206ABFEF7CCFF30B907A80CA9142204
:1052800000F0B6F800283FD0FBF7FAF840463F4957
:10529000FFF75EFE00200146FEF7EAFE4046334976
:1052A000FFF756FE40463A49FFF752FE6420FBF7EF
:1052B000F7FD3848FCF71CFC08B1FBF7E1F8404665
:1052C0002449FFF745FE40463349FFF741FE40467B
:1052D0003249FFF73DFE6420FBF7E2FD0DF5237D2B
:1052E000BDE8F08340462149FFF732FE9DE7404686
:1052F0001E49FFF72DFE8DE7294B1C490122404630
:105300001A70FFF725FE42E740461849FFF720FED6
:10531000BCE7FBF7B5F8A9E7FBF7B2F864E7FBF7E2
:10532000AFF843E7FBF7ACF8D7E6FBF7A9F898E648
:10533000FBF7A6F86CE6FBF7A3F860E6FBF7A0F82E
:1053400054E6FBF79DF83AE640460849FFF700FEB1
:105350007DE700BF7C650008A8670008D8650008E5
:10536000F8190020046600081C6600083065000873
:1053700020660008646600088466000894660008D9
:10538000B0660008CC660008F066000814670008E4
:105390002C670008540E0020486700088467000846
:1053A0002C2C0020AFF30080AFF30080AFF300801F
:1053B00010B50A490446FFF7CBFD6420FBF770FDEA
:1053C0000748FCF70DFA20B92046BDE81040FFF76A
:1053D000CFBDBDE81040FBF753B800BFBC67000865
:1053E000540E0020AFF30080AFF30080AFF30080D5
:1053F000032A70B426D940EA01039B0711D0047830
:105400000D78AC4222D10244431C05E013F8014B55
:1054100011F8015FAC4219D19342F7D1002070BC62
:1054200070470C4603461E682568AE421846214662
:1054300003F1040304F1040404D1043A032A1846D6
:105440002146F0D8002ADAD11046E8E7601B70BC8C
:10545000704700BF000000000000000000000000D6
:105460000F4B30B41D6802E0D21A16D1ABB110F860
:10547000014B2B1922465B7803F00303012B11F833
:10548000013B08BF04F12002EC18647804F0030427
:10549000012CE9D12033D21AE9D0104630BC704734
:1054A00024080020000000000000000000000000B0
:1054B00030B40478ECB10D78ADB1AC420ED00A46F0
:1054C00001E09C4209D012F8013F002BF9D110F8FD
:1054D000014F002CF0D1157800E02546002D08BFC3
:1054E000002030BC704710F8014F0A46002CE3D171
:1054F000F1E7204630BC70470000000000000000CB
:1055000070B40478A4B10E7805464EB1B4420AD006
:105510000A4601E09C4206D012F8013F002BF9D167
:10552000281A70BC704715F8014F002CEDD1F7E731
:105530002046F6E700000000000000000000000028
:1055400069646C65000000000000000000000000BD
:105550005356233100000000535623320000000050
:10556000535623330000000053562334000000003C
:105570005356233500000000535623360000000028
:105580005356233700000000535623380000000014
:1055900053562339000000005356233130000000D9
:1055A00053562331310000000000000000000000CD
:1055B000226368565453657449222829000000006C
:1055C0002263685654526573657449222829000085
:1055D0006368565452657365744928292C20233119
:1055E00000000000000000000000000000000000BB
:1055F000636853636852656164794928292C2023C4
:1056000031000000737461636B206F766572666CA5
:105610006F770000000000000000000000000000A4
:10562000226368546864437265617465492228295D
:105630000000000022636854686453657450726906
:105640006F72697479222829000000006368546829
:1056500064526573756D6528292C20233100000084
:10566000226368546864536C6565702228290000C1
:105670006368546864457869745328292C20233161
:10568000000000002263685468645761697422282E
:105690002900000063685468645761697428292CE4
:1056A0002023310063685468645761697428292C89
:1056B0002023320000000000000000000000000075
:1056C0006D61696E0016871104044C080C101418E3
:1056D0001C20212223240000000000000000000004
:1056E0002263684D7478496E69742228290000008D
:1056F0002263684D74784C6F636B53222829000035
:1057000063684D74784C6F636B5328292C202331C8
:105710000000000063684D74784C6F636B53282958
:105720002C202332000000002263684D74785472EC
:10573000794C6F636B5322282900000063684D7415
:1057400078556E6C6F636B28292C20233100000084
:1057500063684D7478556E6C6F636B28292C202319
:105760003200000063684D7478556E6C6F636B5344
:1057700028292C202331000063684D7478556E6C05
:105780006F636B5328292C20233200000000000097
:1057900022636845767452656769737465724D61FA
:1057A000736B222829000000226368457674556EC9
:1057B00072656769737465722228290022636845DF
:1057C00076745369676E616C4922282900000000D5
:1057D00022636845767442726F6164636173744DCD
:1057E00061736B49222829002263684576745369E6
:1057F000676E616C222829002263684576744469CB
:10580000737061746368222829000000636845761C
:1058100074446973706174636828292C20233100F3
:1058200022636849515265616454696D656F75748E
:10583000222829002263684F5157726974655469A0
:105840006D656F75742228290000000000000000BB
:1058500022636848656170496E69742228290000D6
:1058600022636848656170467265652228290000D8
:105870006368486561704672656528292C2023316C
:105880000000000000000000000000000000000018
:10589000226D6D6373645F6765745F736C696365C4
:1058A0002228290000000000000000000000000085
:1058B000612E0008812E0008E1170008F11A000887
:1058C000C1190008211A0008811A0008B117000840
:1058D00022736463476574496E666F22282900004D
:1058E00022736463436F6E6E65637422282900001F
:1058F0006D6D63436F6E6E65637428292C202331B0
:10590000000000002273646352656164222829004C
:105910007364635265616428292C202331000000E0
:10592000227364635772697465222829000000009D
:10593000736463577269746528292C202331000031
:105940002273646353796E6322282900227364638F
:10595000446973636F6E6E656374222829000000CA
:10596000736463446973636F6E6E65637428292C76
:1059700020233100227364635374617274222829D6
:1059800000000000736463537461727428292C2032
:10599000233100002273646353746F70222829003E
:1059A00073646353746F7028292C20233100000026
:1059B00022736463476574416E64436C656172452C
:1059C00072726F72732228290000000073646347AB
:1059D0006574416E64436C6561724572726F727377
:1059E00028292C20233100002273646345726173DF
:1059F00065222829000000007364634572617365A5
:105A000028292C20233100000000000000000000A5
:105A1000227364537461727422282900736453746E
:105A200061727428292C20233100000022736453F2
:105A3000746F702228290000736453746F702829D2
:105A40002C20233100000000227364496E636F6DC7
:105A5000696E674461746149222829002273645287
:105A60006571756573744461746149222829000069
:105A7000C11C0008A11C0008011D0008E11C000851
:105A8000F11C0008D11C0008B11C0008911C000882
:105A900022646D6153747265616D416C6C6F6361FA
:105AA000746522282900000022646D6153747265B8
:105AB000616D52656C6561736522282900000000E4
:105AC000646D6153747265616D52656C6561736577
:105AD00028292C20233100000000000000000000D5
